{
  "_format": "hh-sol-artifact-1",
  "contractName": "Nft",
  "sourceName": "contracts/Nft.sol",
  "abi": [
    {
      "inputs": [
        {
          "internalType": "address",
          "name": "_tokenaddress",
          "type": "address"
        }
      ],
      "stateMutability": "nonpayable",
      "type": "constructor"
    },
    {
      "inputs": [
        {
          "internalType": "uint256",
          "name": "limit",
          "type": "uint256"
        }
      ],
      "name": "MaxLimitReached",
      "type": "error"
    },
    {
      "inputs": [
        {
          "internalType": "uint256",
          "name": "price",
          "type": "uint256"
        }
      ],
      "name": "PriceNotEqual",
      "type": "error"
    },
    {
      "anonymous": false,
      "inputs": [
        {
          "indexed": true,
          "internalType": "address",
          "name": "owner",
          "type": "address"
        },
        {
          "indexed": true,
          "internalType": "address",
          "name": "approved",
          "type": "address"
        },
        {
          "indexed": true,
          "internalType": "uint256",
          "name": "tokenId",
          "type": "uint256"
        }
      ],
      "name": "Approval",
      "type": "event"
    },
    {
      "anonymous": false,
      "inputs": [
        {
          "indexed": true,
          "internalType": "address",
          "name": "owner",
          "type": "address"
        },
        {
          "indexed": true,
          "internalType": "address",
          "name": "operator",
          "type": "address"
        },
        {
          "indexed": false,
          "internalType": "bool",
          "name": "approved",
          "type": "bool"
        }
      ],
      "name": "ApprovalForAll",
      "type": "event"
    },
    {
      "anonymous": false,
      "inputs": [
        {
          "indexed": false,
          "internalType": "address",
          "name": "_address",
          "type": "address"
        },
        {
          "indexed": false,
          "internalType": "uint256",
          "name": "tokenId",
          "type": "uint256"
        },
        {
          "indexed": false,
          "internalType": "uint256",
          "name": "price",
          "type": "uint256"
        }
      ],
      "name": "MintedNft",
      "type": "event"
    },
    {
      "anonymous": false,
      "inputs": [
        {
          "indexed": true,
          "internalType": "address",
          "name": "previousOwner",
          "type": "address"
        },
        {
          "indexed": true,
          "internalType": "address",
          "name": "newOwner",
          "type": "address"
        }
      ],
      "name": "OwnershipTransferred",
      "type": "event"
    },
    {
      "anonymous": false,
      "inputs": [
        {
          "indexed": true,
          "internalType": "address",
          "name": "from",
          "type": "address"
        },
        {
          "indexed": true,
          "internalType": "address",
          "name": "to",
          "type": "address"
        },
        {
          "indexed": true,
          "internalType": "uint256",
          "name": "tokenId",
          "type": "uint256"
        }
      ],
      "name": "Transfer",
      "type": "event"
    },
    {
      "inputs": [
        {
          "internalType": "uint256",
          "name": "",
          "type": "uint256"
        }
      ],
      "name": "NftData",
      "outputs": [
        {
          "internalType": "string",
          "name": "Hash",
          "type": "string"
        }
      ],
      "stateMutability": "view",
      "type": "function"
    },
    {
      "inputs": [
        {
          "internalType": "address",
          "name": "to",
          "type": "address"
        },
        {
          "internalType": "uint256",
          "name": "tokenId",
          "type": "uint256"
        }
      ],
      "name": "approve",
      "outputs": [],
      "stateMutability": "nonpayable",
      "type": "function"
    },
    {
      "inputs": [
        {
          "internalType": "address",
          "name": "owner",
          "type": "address"
        }
      ],
      "name": "balanceOf",
      "outputs": [
        {
          "internalType": "uint256",
          "name": "",
          "type": "uint256"
        }
      ],
      "stateMutability": "view",
      "type": "function"
    },
    {
      "inputs": [],
      "name": "baseURI",
      "outputs": [
        {
          "internalType": "string",
          "name": "",
          "type": "string"
        }
      ],
      "stateMutability": "view",
      "type": "function"
    },
    {
      "inputs": [],
      "name": "checkPrice",
      "outputs": [
        {
          "internalType": "uint256",
          "name": "",
          "type": "uint256"
        }
      ],
      "stateMutability": "view",
      "type": "function"
    },
    {
      "inputs": [
        {
          "internalType": "uint256",
          "name": "tokenId",
          "type": "uint256"
        }
      ],
      "name": "getApproved",
      "outputs": [
        {
          "internalType": "address",
          "name": "",
          "type": "address"
        }
      ],
      "stateMutability": "view",
      "type": "function"
    },
    {
      "inputs": [
        {
          "internalType": "address",
          "name": "owner",
          "type": "address"
        },
        {
          "internalType": "address",
          "name": "operator",
          "type": "address"
        }
      ],
      "name": "isApprovedForAll",
      "outputs": [
        {
          "internalType": "bool",
          "name": "",
          "type": "bool"
        }
      ],
      "stateMutability": "view",
      "type": "function"
    },
    {
      "inputs": [],
      "name": "maxMintLimit",
      "outputs": [
        {
          "internalType": "uint256",
          "name": "",
          "type": "uint256"
        }
      ],
      "stateMutability": "view",
      "type": "function"
    },
    {
      "inputs": [
        {
          "internalType": "uint256",
          "name": "tokenId",
          "type": "uint256"
        },
        {
          "internalType": "uint256",
          "name": "price",
          "type": "uint256"
        },
        {
          "internalType": "string",
          "name": "_metadataHash",
          "type": "string"
        }
      ],
      "name": "mintNft",
      "outputs": [],
      "stateMutability": "nonpayable",
      "type": "function"
    },
    {
      "inputs": [],
      "name": "name",
      "outputs": [
        {
          "internalType": "string",
          "name": "",
          "type": "string"
        }
      ],
      "stateMutability": "view",
      "type": "function"
    },
    {
      "inputs": [],
      "name": "owner",
      "outputs": [
        {
          "internalType": "address",
          "name": "",
          "type": "address"
        }
      ],
      "stateMutability": "view",
      "type": "function"
    },
    {
      "inputs": [
        {
          "internalType": "uint256",
          "name": "tokenId",
          "type": "uint256"
        }
      ],
      "name": "ownerOf",
      "outputs": [
        {
          "internalType": "address",
          "name": "",
          "type": "address"
        }
      ],
      "stateMutability": "view",
      "type": "function"
    },
    {
      "inputs": [],
      "name": "renounceOwnership",
      "outputs": [],
      "stateMutability": "nonpayable",
      "type": "function"
    },
    {
      "inputs": [
        {
          "internalType": "address",
          "name": "from",
          "type": "address"
        },
        {
          "internalType": "address",
          "name": "to",
          "type": "address"
        },
        {
          "internalType": "uint256",
          "name": "tokenId",
          "type": "uint256"
        }
      ],
      "name": "safeTransferFrom",
      "outputs": [],
      "stateMutability": "nonpayable",
      "type": "function"
    },
    {
      "inputs": [
        {
          "internalType": "address",
          "name": "from",
          "type": "address"
        },
        {
          "internalType": "address",
          "name": "to",
          "type": "address"
        },
        {
          "internalType": "uint256",
          "name": "tokenId",
          "type": "uint256"
        },
        {
          "internalType": "bytes",
          "name": "data",
          "type": "bytes"
        }
      ],
      "name": "safeTransferFrom",
      "outputs": [],
      "stateMutability": "nonpayable",
      "type": "function"
    },
    {
      "inputs": [
        {
          "internalType": "address",
          "name": "operator",
          "type": "address"
        },
        {
          "internalType": "bool",
          "name": "approved",
          "type": "bool"
        }
      ],
      "name": "setApprovalForAll",
      "outputs": [],
      "stateMutability": "nonpayable",
      "type": "function"
    },
    {
      "inputs": [
        {
          "internalType": "bytes4",
          "name": "interfaceId",
          "type": "bytes4"
        }
      ],
      "name": "supportsInterface",
      "outputs": [
        {
          "internalType": "bool",
          "name": "",
          "type": "bool"
        }
      ],
      "stateMutability": "view",
      "type": "function"
    },
    {
      "inputs": [],
      "name": "symbol",
      "outputs": [
        {
          "internalType": "string",
          "name": "",
          "type": "string"
        }
      ],
      "stateMutability": "view",
      "type": "function"
    },
    {
      "inputs": [],
      "name": "tokenAddress",
      "outputs": [
        {
          "internalType": "contract IERC20",
          "name": "",
          "type": "address"
        }
      ],
      "stateMutability": "view",
      "type": "function"
    },
    {
      "inputs": [
        {
          "internalType": "uint256",
          "name": "tokenId",
          "type": "uint256"
        }
      ],
      "name": "tokenURI",
      "outputs": [
        {
          "internalType": "string",
          "name": "",
          "type": "string"
        }
      ],
      "stateMutability": "view",
      "type": "function"
    },
    {
      "inputs": [
        {
          "internalType": "address",
          "name": "from",
          "type": "address"
        },
        {
          "internalType": "address",
          "name": "to",
          "type": "address"
        },
        {
          "internalType": "uint256",
          "name": "tokenId",
          "type": "uint256"
        }
      ],
      "name": "transferFrom",
      "outputs": [],
      "stateMutability": "nonpayable",
      "type": "function"
    },
    {
      "inputs": [
        {
          "internalType": "address",
          "name": "newOwner",
          "type": "address"
        }
      ],
      "name": "transferOwnership",
      "outputs": [],
      "stateMutability": "nonpayable",
      "type": "function"
    }
  ],
  "bytecode": "0x60806040526706f05b59d3b20000600b553480156200001d57600080fd5b506040516200311738038062003117833981810160405281019062000043919062000312565b6040518060400160405280600681526020017f506c75746f6e00000000000000000000000000000000000000000000000000008152506040518060400160405280600381526020017f504c5400000000000000000000000000000000000000000000000000000000008152508160009080519060200190620000c79291906200024b565b508060019080519060200190620000e09291906200024b565b50505062000103620000f76200017d60201b60201c565b6200018560201b60201c565b80600860006101000a81548173ffffffffffffffffffffffffffffffffffffffff021916908373ffffffffffffffffffffffffffffffffffffffff160217905550604051806060016040528060228152602001620030f560229139600a9080519060200190620001759291906200024b565b5050620003f1565b600033905090565b6000600760009054906101000a900473ffffffffffffffffffffffffffffffffffffffff16905081600760006101000a81548173ffffffffffffffffffffffffffffffffffffffff021916908373ffffffffffffffffffffffffffffffffffffffff1602179055508173ffffffffffffffffffffffffffffffffffffffff168173ffffffffffffffffffffffffffffffffffffffff167f8be0079c531659141344cd1fd0a4f28419497f9722a3daafe3b4186f6b6457e060405160405180910390a35050565b828054620002599062000372565b90600052602060002090601f0160209004810192826200027d5760008555620002c9565b82601f106200029857805160ff1916838001178555620002c9565b82800160010185558215620002c9579182015b82811115620002c8578251825591602001919060010190620002ab565b5b509050620002d89190620002dc565b5090565b5b80821115620002f7576000816000905550600101620002dd565b5090565b6000815190506200030c81620003d7565b92915050565b6000602082840312156200032557600080fd5b60006200033584828501620002fb565b91505092915050565b60006200034b8262000352565b9050919050565b600073ffffffffffffffffffffffffffffffffffffffff82169050919050565b600060028204905060018216806200038b57607f821691505b60208210811415620003a257620003a1620003a8565b5b50919050565b7f4e487b7100000000000000000000000000000000000000000000000000000000600052602260045260246000fd5b620003e2816200033e565b8114620003ee57600080fd5b50565b612cf480620004016000396000f3fe608060405234801561001057600080fd5b50600436106101425760003560e01c806370e2f827116100b85780639d76ea581161007c5780639d76ea5814610365578063a22cb46514610383578063b88d4fde1461039f578063c87b56dd146103bb578063e985e9c5146103eb578063f2fde38b1461041b57610142565b806370e2f827146102e3578063715018a6146103015780638da5cb5b1461030b5780638fc3047d1461032957806395d89b411461034757610142565b806323b872dd1161010a57806323b872dd146101fd57806342842e0e146102195780634d48417c146102355780636352211e146102655780636c0360eb1461029557806370a08231146102b357610142565b806301ffc9a71461014757806306fdde0314610177578063081812fc14610195578063095ea7b3146101c5578063120a1901146101e1575b600080fd5b610161600480360381019061015c9190611eae565b610437565b60405161016e919061237d565b60405180910390f35b61017f610519565b60405161018c91906123b3565b60405180910390f35b6101af60048036038101906101aa9190611f00565b6105ab565b6040516101bc91906122a8565b60405180910390f35b6101df60048036038101906101da9190611e49565b6105f1565b005b6101fb60048036038101906101f69190611f29565b610709565b005b61021760048036038101906102129190611d43565b6108fa565b005b610233600480360381019061022e9190611d43565b61095a565b005b61024f600480360381019061024a9190611f00565b61097a565b60405161025c91906123b3565b60405180910390f35b61027f600480360381019061027a9190611f00565b610a20565b60405161028c91906122a8565b60405180910390f35b61029d610ad2565b6040516102aa91906123b3565b60405180910390f35b6102cd60048036038101906102c89190611cde565b610b60565b6040516102da9190612575565b60405180910390f35b6102eb610c18565b6040516102f89190612575565b60405180910390f35b610309610c1e565b005b610313610c32565b60405161032091906122a8565b60405180910390f35b610331610c5c565b60405161033e9190612575565b60405180910390f35b61034f610c62565b60405161035c91906123b3565b60405180910390f35b61036d610cf4565b60405161037a9190612398565b60405180910390f35b61039d60048036038101906103989190611e0d565b610d1a565b005b6103b960048036038101906103b49190611d92565b610d30565b005b6103d560048036038101906103d09190611f00565b610d92565b6040516103e291906123b3565b60405180910390f35b61040560048036038101906104009190611d07565b610dd3565b604051610412919061237d565b60405180910390f35b61043560048036038101906104309190611cde565b610e67565b005b60007f80ac58cd000000000000000000000000000000000000000000000000000000007bffffffffffffffffffffffffffffffffffffffffffffffffffffffff1916827bffffffffffffffffffffffffffffffffffffffffffffffffffffffff1916148061050257507f5b5e139f000000000000000000000000000000000000000000000000000000007bffffffffffffffffffffffffffffffffffffffffffffffffffffffff1916827bffffffffffffffffffffffffffffffffffffffffffffffffffffffff1916145b80610512575061051182610eeb565b5b9050919050565b606060008054610528906127d3565b80601f0160208091040260200160405190810160405280929190818152602001828054610554906127d3565b80156105a15780601f10610576576101008083540402835291602001916105a1565b820191906000526020600020905b81548152906001019060200180831161058457829003601f168201915b5050505050905090565b60006105b682610f55565b6004600083815260200190815260200160002060009054906101000a900473ffffffffffffffffffffffffffffffffffffffff169050919050565b60006105fc82610a20565b90508073ffffffffffffffffffffffffffffffffffffffff168373ffffffffffffffffffffffffffffffffffffffff16141561066d576040517f08c379a000000000000000000000000000000000000000000000000000000000815260040161066490612535565b60405180910390fd5b8073ffffffffffffffffffffffffffffffffffffffff1661068c610fa0565b73ffffffffffffffffffffffffffffffffffffffff1614806106bb57506106ba816106b5610fa0565b610dd3565b5b6106fa576040517f08c379a00000000000000000000000000000000000000000000000000000000081526004016106f1906124b5565b60405180910390fd5b6107048383610fa8565b505050565b600360095410610752576009546040517f1098467f0000000000000000000000000000000000000000000000000000000081526004016107499190612575565b60405180910390fd5b6706f05b59d3b200008214156108b857600860009054906101000a900473ffffffffffffffffffffffffffffffffffffffff1673ffffffffffffffffffffffffffffffffffffffff166323b872dd3330856040518463ffffffff1660e01b81526004016107c1939291906122c3565b602060405180830381600087803b1580156107db57600080fd5b505af11580156107ef573d6000803e3d6000fd5b505050506040513d601f19601f820116820180604052508101906108139190611e85565b5061081e3384611061565b604051806020016040528082815250600c6000858152602001908152602001600020600082015181600001908051906020019061085c929190611aed565b509050506009600081548092919061087390612836565b91905055507f579010ef547469260d97e6dddf7a3f5a40071920bd9f292a225c404cdd6460f33384846040516108ab93929190612346565b60405180910390a16108f5565b816040517f0fd65fb70000000000000000000000000000000000000000000000000000000081526004016108ec9190612575565b60405180910390fd5b505050565b61090b610905610fa0565b8261107f565b61094a576040517f08c379a000000000000000000000000000000000000000000000000000000000815260040161094190612555565b60405180910390fd5b610955838383611114565b505050565b61097583838360405180602001604052806000815250610d30565b505050565b600c60205280600052604060002060009150905080600001805461099d906127d3565b80601f01602080910402602001604051908101604052809291908181526020018280546109c9906127d3565b8015610a165780601f106109eb57610100808354040283529160200191610a16565b820191906000526020600020905b8154815290600101906020018083116109f957829003601f168201915b5050505050905081565b6000806002600084815260200190815260200160002060009054906101000a900473ffffffffffffffffffffffffffffffffffffffff169050600073ffffffffffffffffffffffffffffffffffffffff168173ffffffffffffffffffffffffffffffffffffffff161415610ac9576040517f08c379a0000000000000000000000000000000000000000000000000000000008152600401610ac090612515565b60405180910390fd5b80915050919050565b600a8054610adf906127d3565b80601f0160208091040260200160405190810160405280929190818152602001828054610b0b906127d3565b8015610b585780601f10610b2d57610100808354040283529160200191610b58565b820191906000526020600020905b815481529060010190602001808311610b3b57829003601f168201915b505050505081565b60008073ffffffffffffffffffffffffffffffffffffffff168273ffffffffffffffffffffffffffffffffffffffff161415610bd1576040517f08c379a0000000000000000000000000000000000000000000000000000000008152600401610bc890612495565b60405180910390fd5b600360008373ffffffffffffffffffffffffffffffffffffffff1673ffffffffffffffffffffffffffffffffffffffff168152602001908152602001600020549050919050565b60095481565b610c2661137b565b610c3060006113f9565b565b6000600760009054906101000a900473ffffffffffffffffffffffffffffffffffffffff16905090565b600b5481565b606060018054610c71906127d3565b80601f0160208091040260200160405190810160405280929190818152602001828054610c9d906127d3565b8015610cea5780601f10610cbf57610100808354040283529160200191610cea565b820191906000526020600020905b815481529060010190602001808311610ccd57829003601f168201915b5050505050905090565b600860009054906101000a900473ffffffffffffffffffffffffffffffffffffffff1681565b610d2c610d25610fa0565b83836114bf565b5050565b610d41610d3b610fa0565b8361107f565b610d80576040517f08c379a0000000000000000000000000000000000000000000000000000000008152600401610d7790612555565b60405180910390fd5b610d8c8484848461162c565b50505050565b6060600a600c6000848152602001908152602001600020600001604051602001610dbd929190612284565b6040516020818303038152906040529050919050565b6000600560008473ffffffffffffffffffffffffffffffffffffffff1673ffffffffffffffffffffffffffffffffffffffff16815260200190815260200160002060008373ffffffffffffffffffffffffffffffffffffffff1673ffffffffffffffffffffffffffffffffffffffff16815260200190815260200160002060009054906101000a900460ff16905092915050565b610e6f61137b565b600073ffffffffffffffffffffffffffffffffffffffff168173ffffffffffffffffffffffffffffffffffffffff161415610edf576040517f08c379a0000000000000000000000000000000000000000000000000000000008152600401610ed6906123f5565b60405180910390fd5b610ee8816113f9565b50565b60007f01ffc9a7000000000000000000000000000000000000000000000000000000007bffffffffffffffffffffffffffffffffffffffffffffffffffffffff1916827bffffffffffffffffffffffffffffffffffffffffffffffffffffffff1916149050919050565b610f5e81611688565b610f9d576040517f08c379a0000000000000000000000000000000000000000000000000000000008152600401610f9490612515565b60405180910390fd5b50565b600033905090565b816004600083815260200190815260200160002060006101000a81548173ffffffffffffffffffffffffffffffffffffffff021916908373ffffffffffffffffffffffffffffffffffffffff160217905550808273ffffffffffffffffffffffffffffffffffffffff1661101b83610a20565b73ffffffffffffffffffffffffffffffffffffffff167f8c5be1e5ebec7d5bd14f71427d1e84f3dd0314c0f7b2291e5b200ac8c7c3b92560405160405180910390a45050565b61107b8282604051806020016040528060008152506116f4565b5050565b60008061108b83610a20565b90508073ffffffffffffffffffffffffffffffffffffffff168473ffffffffffffffffffffffffffffffffffffffff1614806110cd57506110cc8185610dd3565b5b8061110b57508373ffffffffffffffffffffffffffffffffffffffff166110f3846105ab565b73ffffffffffffffffffffffffffffffffffffffff16145b91505092915050565b8273ffffffffffffffffffffffffffffffffffffffff1661113482610a20565b73ffffffffffffffffffffffffffffffffffffffff161461118a576040517f08c379a000000000000000000000000000000000000000000000000000000000815260040161118190612415565b60405180910390fd5b600073ffffffffffffffffffffffffffffffffffffffff168273ffffffffffffffffffffffffffffffffffffffff1614156111fa576040517f08c379a00000000000000000000000000000000000000000000000000000000081526004016111f190612455565b60405180910390fd5b61120583838361174f565b611210600082610fa8565b6001600360008573ffffffffffffffffffffffffffffffffffffffff1673ffffffffffffffffffffffffffffffffffffffff168152602001908152602001600020600082825461126091906126c5565b925050819055506001600360008473ffffffffffffffffffffffffffffffffffffffff1673ffffffffffffffffffffffffffffffffffffffff16815260200190815260200160002060008282546112b7919061266f565b92505081905550816002600083815260200190815260200160002060006101000a81548173ffffffffffffffffffffffffffffffffffffffff021916908373ffffffffffffffffffffffffffffffffffffffff160217905550808273ffffffffffffffffffffffffffffffffffffffff168473ffffffffffffffffffffffffffffffffffffffff167fddf252ad1be2c89b69c2b068fc378daa952ba7f163c4a11628f55a4df523b3ef60405160405180910390a4611376838383611754565b505050565b611383610fa0565b73ffffffffffffffffffffffffffffffffffffffff166113a1610c32565b73ffffffffffffffffffffffffffffffffffffffff16146113f7576040517f08c379a00000000000000000000000000000000000000000000000000000000081526004016113ee906124f5565b60405180910390fd5b565b6000600760009054906101000a900473ffffffffffffffffffffffffffffffffffffffff16905081600760006101000a81548173ffffffffffffffffffffffffffffffffffffffff021916908373ffffffffffffffffffffffffffffffffffffffff1602179055508173ffffffffffffffffffffffffffffffffffffffff168173ffffffffffffffffffffffffffffffffffffffff167f8be0079c531659141344cd1fd0a4f28419497f9722a3daafe3b4186f6b6457e060405160405180910390a35050565b8173ffffffffffffffffffffffffffffffffffffffff168373ffffffffffffffffffffffffffffffffffffffff16141561152e576040517f08c379a000000000000000000000000000000000000000000000000000000000815260040161152590612475565b60405180910390fd5b80600560008573ffffffffffffffffffffffffffffffffffffffff1673ffffffffffffffffffffffffffffffffffffffff16815260200190815260200160002060008473ffffffffffffffffffffffffffffffffffffffff1673ffffffffffffffffffffffffffffffffffffffff16815260200190815260200160002060006101000a81548160ff0219169083151502179055508173ffffffffffffffffffffffffffffffffffffffff168373ffffffffffffffffffffffffffffffffffffffff167f17307eab39ab6107e8899845ad3d59bd9653f200f220920489ca2b5937696c318360405161161f919061237d565b60405180910390a3505050565b611637848484611114565b61164384848484611759565b611682576040517f08c379a0000000000000000000000000000000000000000000000000000000008152600401611679906123d5565b60405180910390fd5b50505050565b60008073ffffffffffffffffffffffffffffffffffffffff166002600084815260200190815260200160002060009054906101000a900473ffffffffffffffffffffffffffffffffffffffff1673ffffffffffffffffffffffffffffffffffffffff1614159050919050565b6116fe83836118f0565b61170b6000848484611759565b61174a576040517f08c379a0000000000000000000000000000000000000000000000000000000008152600401611741906123d5565b60405180910390fd5b505050565b505050565b505050565b600061177a8473ffffffffffffffffffffffffffffffffffffffff16611aca565b156118e3578373ffffffffffffffffffffffffffffffffffffffff1663150b7a026117a3610fa0565b8786866040518563ffffffff1660e01b81526004016117c594939291906122fa565b602060405180830381600087803b1580156117df57600080fd5b505af192505050801561181057506040513d601f19601f8201168201806040525081019061180d9190611ed7565b60015b611893573d8060008114611840576040519150601f19603f3d011682016040523d82523d6000602084013e611845565b606091505b5060008151141561188b576040517f08c379a0000000000000000000000000000000000000000000000000000000008152600401611882906123d5565b60405180910390fd5b805181602001fd5b63150b7a0260e01b7bffffffffffffffffffffffffffffffffffffffffffffffffffffffff1916817bffffffffffffffffffffffffffffffffffffffffffffffffffffffff1916149150506118e8565b600190505b949350505050565b600073ffffffffffffffffffffffffffffffffffffffff168273ffffffffffffffffffffffffffffffffffffffff161415611960576040517f08c379a0000000000000000000000000000000000000000000000000000000008152600401611957906124d5565b60405180910390fd5b61196981611688565b156119a9576040517f08c379a00000000000000000000000000000000000000000000000000000000081526004016119a090612435565b60405180910390fd5b6119b56000838361174f565b6001600360008473ffffffffffffffffffffffffffffffffffffffff1673ffffffffffffffffffffffffffffffffffffffff1681526020019081526020016000206000828254611a05919061266f565b92505081905550816002600083815260200190815260200160002060006101000a81548173ffffffffffffffffffffffffffffffffffffffff021916908373ffffffffffffffffffffffffffffffffffffffff160217905550808273ffffffffffffffffffffffffffffffffffffffff16600073ffffffffffffffffffffffffffffffffffffffff167fddf252ad1be2c89b69c2b068fc378daa952ba7f163c4a11628f55a4df523b3ef60405160405180910390a4611ac660008383611754565b5050565b6000808273ffffffffffffffffffffffffffffffffffffffff163b119050919050565b828054611af9906127d3565b90600052602060002090601f016020900481019282611b1b5760008555611b62565b82601f10611b3457805160ff1916838001178555611b62565b82800160010185558215611b62579182015b82811115611b61578251825591602001919060010190611b46565b5b509050611b6f9190611b73565b5090565b5b80821115611b8c576000816000905550600101611b74565b5090565b6000611ba3611b9e846125b5565b612590565b905082815260208101848484011115611bbb57600080fd5b611bc6848285612791565b509392505050565b6000611be1611bdc846125e6565b612590565b905082815260208101848484011115611bf957600080fd5b611c04848285612791565b509392505050565b600081359050611c1b81612c62565b92915050565b600081359050611c3081612c79565b92915050565b600081519050611c4581612c79565b92915050565b600081359050611c5a81612c90565b92915050565b600081519050611c6f81612c90565b92915050565b600082601f830112611c8657600080fd5b8135611c96848260208601611b90565b91505092915050565b600082601f830112611cb057600080fd5b8135611cc0848260208601611bce565b91505092915050565b600081359050611cd881612ca7565b92915050565b600060208284031215611cf057600080fd5b6000611cfe84828501611c0c565b91505092915050565b60008060408385031215611d1a57600080fd5b6000611d2885828601611c0c565b9250506020611d3985828601611c0c565b9150509250929050565b600080600060608486031215611d5857600080fd5b6000611d6686828701611c0c565b9350506020611d7786828701611c0c565b9250506040611d8886828701611cc9565b9150509250925092565b60008060008060808587031215611da857600080fd5b6000611db687828801611c0c565b9450506020611dc787828801611c0c565b9350506040611dd887828801611cc9565b925050606085013567ffffffffffffffff811115611df557600080fd5b611e0187828801611c75565b91505092959194509250565b60008060408385031215611e2057600080fd5b6000611e2e85828601611c0c565b9250506020611e3f85828601611c21565b9150509250929050565b60008060408385031215611e5c57600080fd5b6000611e6a85828601611c0c565b9250506020611e7b85828601611cc9565b9150509250929050565b600060208284031215611e9757600080fd5b6000611ea584828501611c36565b91505092915050565b600060208284031215611ec057600080fd5b6000611ece84828501611c4b565b91505092915050565b600060208284031215611ee957600080fd5b6000611ef784828501611c60565b91505092915050565b600060208284031215611f1257600080fd5b6000611f2084828501611cc9565b91505092915050565b600080600060608486031215611f3e57600080fd5b6000611f4c86828701611cc9565b9350506020611f5d86828701611cc9565b925050604084013567ffffffffffffffff811115611f7a57600080fd5b611f8686828701611c9f565b9150509250925092565b611f99816126f9565b82525050565b611fa88161270b565b82525050565b6000611fb98261262c565b611fc38185612642565b9350611fd38185602086016127a0565b611fdc8161290c565b840191505092915050565b611ff08161276d565b82525050565b600061200182612637565b61200b8185612653565b935061201b8185602086016127a0565b6120248161290c565b840191505092915050565b6000815461203c816127d3565b6120468186612664565b945060018216600081146120615760018114612072576120a5565b60ff198316865281860193506120a5565b61207b85612617565b60005b8381101561209d5781548189015260018201915060208101905061207e565b838801955050505b50505092915050565b60006120bb603283612653565b91506120c68261291d565b604082019050919050565b60006120de602683612653565b91506120e98261296c565b604082019050919050565b6000612101602583612653565b915061210c826129bb565b604082019050919050565b6000612124601c83612653565b915061212f82612a0a565b602082019050919050565b6000612147602483612653565b915061215282612a33565b604082019050919050565b600061216a601983612653565b915061217582612a82565b602082019050919050565b600061218d602983612653565b915061219882612aab565b604082019050919050565b60006121b0603e83612653565b91506121bb82612afa565b604082019050919050565b60006121d3602083612653565b91506121de82612b49565b602082019050919050565b60006121f6602083612653565b915061220182612b72565b602082019050919050565b6000612219601883612653565b915061222482612b9b565b602082019050919050565b600061223c602183612653565b915061224782612bc4565b604082019050919050565b600061225f602e83612653565b915061226a82612c13565b604082019050919050565b61227e81612763565b82525050565b6000612290828561202f565b915061229c828461202f565b91508190509392505050565b60006020820190506122bd6000830184611f90565b92915050565b60006060820190506122d86000830186611f90565b6122e56020830185611f90565b6122f26040830184612275565b949350505050565b600060808201905061230f6000830187611f90565b61231c6020830186611f90565b6123296040830185612275565b818103606083015261233b8184611fae565b905095945050505050565b600060608201905061235b6000830186611f90565b6123686020830185612275565b6123756040830184612275565b949350505050565b60006020820190506123926000830184611f9f565b92915050565b60006020820190506123ad6000830184611fe7565b92915050565b600060208201905081810360008301526123cd8184611ff6565b905092915050565b600060208201905081810360008301526123ee816120ae565b9050919050565b6000602082019050818103600083015261240e816120d1565b9050919050565b6000602082019050818103600083015261242e816120f4565b9050919050565b6000602082019050818103600083015261244e81612117565b9050919050565b6000602082019050818103600083015261246e8161213a565b9050919050565b6000602082019050818103600083015261248e8161215d565b9050919050565b600060208201905081810360008301526124ae81612180565b9050919050565b600060208201905081810360008301526124ce816121a3565b9050919050565b600060208201905081810360008301526124ee816121c6565b9050919050565b6000602082019050818103600083015261250e816121e9565b9050919050565b6000602082019050818103600083015261252e8161220c565b9050919050565b6000602082019050818103600083015261254e8161222f565b9050919050565b6000602082019050818103600083015261256e81612252565b9050919050565b600060208201905061258a6000830184612275565b92915050565b600061259a6125ab565b90506125a68282612805565b919050565b6000604051905090565b600067ffffffffffffffff8211156125d0576125cf6128dd565b5b6125d98261290c565b9050602081019050919050565b600067ffffffffffffffff821115612601576126006128dd565b5b61260a8261290c565b9050602081019050919050565b60008190508160005260206000209050919050565b600081519050919050565b600081519050919050565b600082825260208201905092915050565b600082825260208201905092915050565b600081905092915050565b600061267a82612763565b915061268583612763565b9250827fffffffffffffffffffffffffffffffffffffffffffffffffffffffffffffffff038211156126ba576126b961287f565b5b828201905092915050565b60006126d082612763565b91506126db83612763565b9250828210156126ee576126ed61287f565b5b828203905092915050565b600061270482612743565b9050919050565b60008115159050919050565b60007fffffffff0000000000000000000000000000000000000000000000000000000082169050919050565b600073ffffffffffffffffffffffffffffffffffffffff82169050919050565b6000819050919050565b60006127788261277f565b9050919050565b600061278a82612743565b9050919050565b82818337600083830152505050565b60005b838110156127be5780820151818401526020810190506127a3565b838111156127cd576000848401525b50505050565b600060028204905060018216806127eb57607f821691505b602082108114156127ff576127fe6128ae565b5b50919050565b61280e8261290c565b810181811067ffffffffffffffff8211171561282d5761282c6128dd565b5b80604052505050565b600061284182612763565b91507fffffffffffffffffffffffffffffffffffffffffffffffffffffffffffffffff8214156128745761287361287f565b5b600182019050919050565b7f4e487b7100000000000000000000000000000000000000000000000000000000600052601160045260246000fd5b7f4e487b7100000000000000000000000000000000000000000000000000000000600052602260045260246000fd5b7f4e487b7100000000000000000000000000000000000000000000000000000000600052604160045260246000fd5b6000601f19601f8301169050919050565b7f4552433732313a207472616e7366657220746f206e6f6e20455243373231526560008201527f63656976657220696d706c656d656e7465720000000000000000000000000000602082015250565b7f4f776e61626c653a206e6577206f776e657220697320746865207a65726f206160008201527f6464726573730000000000000000000000000000000000000000000000000000602082015250565b7f4552433732313a207472616e736665722066726f6d20696e636f72726563742060008201527f6f776e6572000000000000000000000000000000000000000000000000000000602082015250565b7f4552433732313a20746f6b656e20616c7265616479206d696e74656400000000600082015250565b7f4552433732313a207472616e7366657220746f20746865207a65726f2061646460008201527f7265737300000000000000000000000000000000000000000000000000000000602082015250565b7f4552433732313a20617070726f766520746f2063616c6c657200000000000000600082015250565b7f4552433732313a2061646472657373207a65726f206973206e6f74206120766160008201527f6c6964206f776e65720000000000000000000000000000000000000000000000602082015250565b7f4552433732313a20617070726f76652063616c6c6572206973206e6f7420746f60008201527f6b656e206f776e6572206e6f7220617070726f76656420666f7220616c6c0000602082015250565b7f4552433732313a206d696e7420746f20746865207a65726f2061646472657373600082015250565b7f4f776e61626c653a2063616c6c6572206973206e6f7420746865206f776e6572600082015250565b7f4552433732313a20696e76616c696420746f6b656e2049440000000000000000600082015250565b7f4552433732313a20617070726f76616c20746f2063757272656e74206f776e6560008201527f7200000000000000000000000000000000000000000000000000000000000000602082015250565b7f4552433732313a2063616c6c6572206973206e6f7420746f6b656e206f776e6560008201527f72206e6f7220617070726f766564000000000000000000000000000000000000602082015250565b612c6b816126f9565b8114612c7657600080fd5b50565b612c828161270b565b8114612c8d57600080fd5b50565b612c9981612717565b8114612ca457600080fd5b50565b612cb081612763565b8114612cbb57600080fd5b5056fea2646970667358221220afe65bf5fb17c84c7c68f5d2da8812520b8fba2adcbc6d2ef3497bac1260224264736f6c6343000804003368747470733a2f2f676174657761792e70696e6174612e636c6f75642f697066732f",
  "linkReferences": {},
  "deployedLinkReferences": {}
}